:400000000080002011000000B9040000B904000080B500AF054A054B1B6843F020031360034A044B1B68136000F050FAE8460040BC760040FA46004010B5054C237833B9FD
:40004000044B13B10448AFF300800123237010BD5081FF1F0000000004230000084B10B51BB108490848AFF300800848036803B910BD074B002BFBD0BDE81040184700BF1F
:40008000000000005481FF1F04230000C880FF1F0000000080B500AF01F084F800BF80BD80B582B000AF00237B7142F20F73FB8062B6294801F028F801F0C8F800F0DEFB09
:4000C00003467B710021002001F0D2F87B79002B03D1224801F004F902E0214801F000F9FB88013BFB80FB8800220021184600F007FD042001F05CFDFB88002B02D142F2DA
:400100000F73FB804FF4FA7001F052FD00F0D4FF002000F03BFD002000F0A4FF4021002001F0C8FD0C2000F031FD0C2000F09AFF00F0D2FF03467B710021012001F098F828
:400140007B79002B03D1074801F0CAF8C8E7064801F0C6F8C4E700BF950000000823000020230000382300005023000080B582B000AF786039603A680021786802F0B9F8D6
:4001800000BF0837BD4680BD80B584B000AFF860B9607A607A68B968F86802F09FF800BF1037BD4680BD00BF80B487B000AF7860396000233B6100237B6127E07B699B00DE
:4001C0007A6813441B68BB60BB68FB73BB6823F0FF03BB6014E03B695B003A6813441B781A46BB68134419463B695B003A6813445B780B703B6901333B61FB7B013BFB73B2
:40020000FB7B002BE7D17B6901337B617B69072BD4D900BF1C37BD4680BC704780B400AF194B4EF65F221A80184B18221A70184B02221A704FF0402308221A70154B0122EF
:400240001A70154B154A1278D2B21A70144B00221A80134B07221A70124B00221A70124B48221A700E4B00221A70104B02221A700F4A0F4B1B78DBB243F00103DBB21370EF
:4002800000BFBD4680BC704780400040824000400043004000420040A14600400901004904400040064000400840004001400040A243004080B483B000AF0B4B1B78FB7165
:4002C0000A4AFB7903F00703DBB21370084AFB791B09DBB21370074B44221A7000BF0C37BD4680BC704700BFCF0100496E5800406F5800407658004080B582B000AF72B6C4
:400300004A4A4A4B1B78DBB243F02003DBB213700023FB7113E0FA7913465B0013445B00434A13443B603B681A683B689B889BB219461046FFF71AFFFB790133FB71FB79B0
:40034000062BE8D93B494FF09040FFF72DFF04213948FFF70BFF394A384B1B78DBB243F00203DBB21370364A354B1B78DBB243F00203DBB21370082232493348FFF704FF41
:40038000052232493248FFF7FFFE0A2231493248FFF7FAFE082231493148FFF7F5FE082230493148FFF7F0FE052230493048FFF7EBFE08222F493048FFF7E6FE05222F4990
:4003C0002F48FFF7E1FE08222E492F48FFF7DCFE05222E492E48FFF7D7FE08222D492E48FFF7D2FE05222D492D48FFF7CDFE2D4A2C4B1B78DBB243F00803DBB213702A4B6A
:4004000000221A70FFF70AFF274B40221A70274B01221A70FFF74EFF0E2225492548FFF7B3FE00BF0837BD4680BD00BFE846004070230000200000480076004003500140EF
:40044000135001403800004802510040400000480B510040480000481051004054000048225100405C00004832510040640000483B5100406C0000484251004074000048FF
:400480004B5100407C00004852510040840000485B5100408C00004862510040940000486B510040224300400048004004000840A0430040B043004080B500AF01F0E2FEDE
:4004C00003461B680C2B00D1FEE7FEE780B586B000AF224B7B61224B3B61204B7B6135E03B691B68FB603B695B68BB603B699B683B6000237B600CE0FB681A68BB681A60E4
:40050000BB680433BB60FB680433FB607B6804337B607A683B689A42EED13B69DB683B6000237B6008E0BB6800221A60BB680433BB607B6804337B607A683B689A42F2D187
:400540003B6910333B617B69013B7B617B69002BC6D101F09DFEFFF7A3FDFEE7010000001424000080B582B000AF194B194A1A60194A194B1B6843F40073136000237B605A
:400580000FE07B68032B04D8144A7B6852F8233000E0134B13497A6841F822307B6801337B607B682F2BECD90F4B1B78DAB20F4B1A700F4B0B4A1A60FFF79EFE01F07EF807
:4005C0000C4B00221A6000BF0837BD4680BD00BF0CED00E00004FA0514ED00E000000000B90400000080FF1FBC760040C480FF1F08ED00E0C080FF1F80B500AF00F068F9B7
:40060000064B01221A600649002001F007FB0721002001F02BFB00BF80BD00BF80E100E0810B000080B582B000AF00F00FF80346FB7100F0D1FF044B01221A70FB79184633
:400640000837BD4680BD00BF9281FF1F90B585B000AF0423FB7300233B73714BBB60714B7B60BB681B0C9AB27B681B0C9BB20021002000F0E5FF03461A466B4B1A706A4B6E
:400680001B78FF2B02D13B7B01333B7300237B7320E00023BB7317E07B7B5A00BB7BD41801F0B2F903461A46604B1A557B7B5A00BB7B13445D4AD35CFF2B02D13B7B01334E
:4006C0003B73BB7B0133BB73BB7B012BE4D97B7B01337B737B7B012BDBD90423FB7000237B7380E00023BB7377E07B7B5A00BB7B13441A46FB78013B9A4215D17B7B5A00FE
:40070000BB7B1344494AD05CBB7B494A5B0013445B7899B2454B1A78464B1B7843F00303DBB201F0CBF933E0BB7B012B1AD17B7B5A00BB7B13443D4AD05CBB7B3C4A5B000C
:4007400013445B7899B27B7B5A00BB7B13440133364AD25C374B1B7843F00303DBB201F0ADF915E07B7B5A00BB7B13442F4AD05CBB7B2F4A5B0013445B7899B27B7B5A008D
:40078000BB7B13440133294AD25C232301F096F97B7B5A00BB7B1344244AD05CBB689AB27B7B9BB21B019BB213449AB2BB7B204911F813309BB213449CB27B689AB2BB7B9A
:4007C0001B4911F813309BB213449BB21A46214601F0B4F9BB7B0133BB73BB7B012B84D97B7B01337B737B7B012B7FF67BAF3B7B002B0FD10C4B1A780C4B1B78194610467A
:4008000001F094F8084B1B780121184600F0AAFF0023FB73FB7B18461437BD4690BD00BF6C81FF1F805000409081FF1F8C81FF1FB0230000CE80FF1F80B582B000AF00F0C3
:4008400031FF0C4B1B78184600F066FF0023FB7108E0FB79084AD35C184601F003F9FB790133FB71FB79032BF3D900BF0837BD4680BD00BF9081FF1F8C81FF1F80B582B0B4
:4008800000AF094B1B78002B04D1074B01221A70FFF7B2FEFFF7C6FE0346FB71FB7918460837BD4680BD00BF9181FF1F80B500AF054B01221A6000F0A9FEFFF7BDFF034BE6
:4008C00000221A7000BF80BD80E100E09281FF1F80B582B000AF0023FB800EE0FB880F2B04D8FB880B4A0021D15403E0FB88094AFF21D154FB880133FB80FB881F2BEDD9C2
:40090000054B1B880021184600F008F800BF0837BD4680BD6C81FF1FCC80FF1F80B586B000AF03460A46FB8013467B717B79022B02D8FB88FF2B02D10123FB7558E0FB8865
:4009400003F00703BB82FB881B099BB203F00F037B82FB881B0A9BB203F00F033B827B79022B06D1FB88184600F04AF80346DB437B71BB8A012202FA03F3DBB2DB43FB73BF
:400980003B8A1A017B8A13443A8A11017A8A0A441A49895CFA7B0A40D2B251B27879BA8A00FA02F252B20A4352B2D1B2134AD1547B7983F001037B713B8A01331A017B8A58
:4009C00013443A8A013211017A8A0A440B49895CFA7B0A40D2B251B27879BA8A00FA02F252B20A4352B2D1B2044AD1540023FB75FB7D18461837BD4680BD00BF6C81FF1F96
:400A000080B485B000AF0346FB80FB88FF2B1ED0FB8803F00703BB81FB881B099BB203F00F037B81FB881B0A9BB203F00F033B813B891A017B891344094AD35C1A46BB8978
:400A400042FA03F3DBB203F00103FB7301E0FF23FB73FB7B18461437BD4680BC704700BF6C81FF1F80B584B000AF03460A46FB711346BB71FB79102B0FD9FB79392B03D816
:400A8000FB79303BFB7108E0FB79472B03D8FB79373BFB7101E00023FB71BB7903F00303BB71BB79C3F10303BB710023FB731BE0FB79114AD35C1A46FB7B42FA03F3DBB2EE
:400AC00003F00103BB73BA79F97B0C481346DB009B1A0B4430F81330BA7B11461846FFF71DFFFB7B0133FB73FB7B062BE0D900BF1037BD4680BD00BF9C230000B423000024
:400B000080B584B000AF0346FB800B467B7113463B717B7903F003037B717B79FB7326E0FA88164BA3FB0213D9080B469B000B445B00D31A9BB2BB73FB88002B08D13B79A6
:400B4000002B05D1FB7B19461020FFF78BFF05E0FA7BBB7B11461846FFF784FFFB88074AA2FB0323DB08FB80FB7B0133FB73FB7B032BD5D900BF1037BD4680BDCDCCCCCC5B
:400B800080B400AF00BFBD4680BC704780B483B000AF0346FB71AC49AB4B1B78DBB25BB223F00E035AB297F9073003F00E035BB213435BB2DBB20B70A449A44B1B78DBB24B
:400BC0005BB223F00E035AB297F9073003F00E035BB213435BB2DBB20B709D499C4B1B78DBB25BB223F00E035AB297F9073003F00E035BB213435BB2DBB20B709549954B4A
:400C00001B78DBB25BB223F00E035AB297F9073003F00E035BB213435BB2DBB20B708E498D4B1B78DBB25BB223F00E035AB297F9073003F00E035BB213435BB2DBB20B70C5
:400C40008649864B1B78DBB25BB223F00E035AB297F9073003F00E035BB213435BB2DBB20B707F497E4B1B78DBB25BB223F00E035AB297F9073003F00E035BB213435BB20B
:400C8000DBB20B707749774B1B78DBB25BB223F00E035AB297F9073003F00E035BB213435BB2DBB20B7070496F4B1B78DBB25BB223F00E035AB297F9073003F00E035BB262
:400CC00013435BB2DBB20B706849684B1B78DBB25BB223F00E035AB297F9073003F00E035BB213435BB2DBB20B706149604B1B78DBB25BB223F00E035AB297F9073003F019
:400D00000E035BB213435BB2DBB20B705949594B1B78DBB25BB223F00E035AB297F9073003F00E035BB213435BB2DBB20B705249514B1B78DBB25BB223F00E035AB297F920
:400D4000073003F00E035BB213435BB2DBB20B704A494A4B1B78DBB25BB223F00E035AB297F9073003F00E035BB213435BB2DBB20B704349424B1B78DBB25BB223F00E038E
:400D80005AB297F9073003F00E035BB213435BB2DBB20B703B493B4B1B78DBB25BB223F00E035AB297F9073003F00E035BB213435BB2DBB20B703449334B1B78DBB25BB212
:400DC00023F00E035AB297F9073003F00E035BB213435BB2DBB20B702C492C4B1B78DBB25BB223F00E035AB297F9073003F00E035BB213435BB2DBB20B702549244B1B7884
:400E0000DBB25BB223F00E035AB297F9073003F00E035BB213435BB2DBB20B701D491D4B1B78DBB25BB223F00E035AB297F9073003F00E035BB213435BB2DBB20B701649D8
:400E4000154B1B78DBB229E0195000401A5000401B5000401C5000401D5000401E5000401F50004028500040295000402A5000402B5000402C5000402D5000402E50004018
:400E80002F5000402050004021500040225000402350004024500040255000405BB223F00E035AB297F9073003F00E035BB213435BB2DBB20B7060495F4B1B78DBB25BB244
:400EC00023F00E035AB297F9073003F00E035BB213435BB2DBB20B705849584B1B78DBB25BB223F00E035AB297F9073003F00E035BB213435BB2DBB20B705149504B1B78D3
:400F0000DBB25BB223F00E035AB297F9073003F00E035BB213435BB2DBB20B704949494B1B78DBB25BB223F00E035AB297F9073003F00E035BB213435BB2DBB20B70424953
:400F4000414B1B78DBB25BB223F00E035AB297F9073003F00E035BB213435BB2DBB20B703A493A4B1B78DBB25BB223F00E035AB297F9073003F00E035BB213435BB2DBB218
:400F80000B703349324B1B78DBB25BB223F00E035AB297F9073003F00E035BB213435BB2DBB20B702B492B4B1B78DBB25BB223F00E035AB297F9073003F00E035BB21343A8
:400FC0005BB2DBB20B702449234B1B78DBB25BB223F00E035AB297F9073003F00E035BB213435BB2DBB20B701C491C4B1B78DBB25BB223F00E035AB297F9073003F00E036D
:401000005BB213435BB2DBB20B701549144B1B78DBB25BB223F00E035AB297F9073003F00E035BB213435BB2DBB20B7000BF0C37BD4680BC704700BF2650004027500040B7
:4010400030500040315000403250004033500040345000403550004036500040375000401850004080B483B000AF0346FB710B490A4B1B78DBB25BB223F00E035AB297F94B
:40108000073003F00E035BB213435BB2DBB20B7000BF0C37BD4680BC704700BF0450004080B400AF00BFBD4680BC704780B400AF00BFBD4680BC704780B500AF044B1A783D
:4010C000044B1A70FFF7ECFFFFF7F0FB00BF80BD9281FF1F9481FF1F80B582B000AFFFF7E5FF084B1B78012B04D1FFF79BFA0346FB7101E00423FB71FB7918460837BD4656
:4011000080BD00BF9481FF1F80B582B000AF786000F03CF8786800F009F8072000F018F800F028F800BF0837BD4680BD80B485B000AF7860054B1B68FB60FB6854337A683E
:401140001A6000BF1437BD4680BC704708ED00E080B483B000AF0346FB71054AFB795B01DBB2137000BF0C37BD4680BC704700BF05E400E080B400AF034B20221A6000BFFA
:40118000BD4680BC704700BF00E100E080B400AF034B20221A6000BFBD4680BC704700BF80E100E080B400AF054B1B78DBB203F010031B09DBB21846BD4680BC704700BFFA
:4011C0008145004080B500AF282000F0F1FC032000F0D0F9052000F0EBFC032000F0CAF90F2000F0E5FC032000F0C4F9012000F0DFFC022000F0BEF9052000F0D9FC06209D
:4012000000F0A6F80E2000F0A3F82C2000F0A0F8082000F09DF8012000F09AF80C2000F097F8032000F094F8052000F0C1FC00BF80BD00BF80B500AF0C2000F089F8024B9E
:4012400001221A7000BF80BD9581FF1F80B500AF064B1B78002B04D1FFF7B4FF034B01221A70FFF7E7FF00BF80BD00BF9681FF1F80B582B000AF03460A46FB711346BB71B9
:40128000FB79032B26D801A252F823F09D120000AB120000B9120000C7120000BB79803BDBB2184600F054F815E0BB79403BDBB2184600F04DF80EE0BB796C3BDBB21846F0
:4012C00000F046F807E0BB792C3BDBB2184600F03FF800E000BF00BF0837BD4680BD00BF80B584B000AF78600123FB737B681B78BB730BE0BB7B184600F010F8FB7B7A689B
:4013000013441B78BB73FB7B0133FB73BB7B002BF0D100BF1037BD4680BD00BF80B584B000AF0346FB7100F02DF8FB791B09FB73FB7B184600F0E2F8FB7903F00F03FB73E9
:40134000FB7B184600F0DAF800BF1037BD4680BD80B584B000AF0346FB7100F013F8FB791B09FB73FB7B184600F004F9FB7903F00F03FB73FB7B184600F0FCF800BF10375D
:40138000BD4680BD80B582B000AF4FF4CA737B60554A554B1B78DBB223F07F03DBB21370524B1B78DBB223F00F03FB704F4AFB7843F00F03DBB213704D4B1B78DBB223F0FF
:4013C0000F03FB704A4AFB7813704A4B1B78DBB223F00F03FB70474AFB781370424A424B1B78DBB223F02003DBB213703E4A3E4B1B78DBB243F04003DBB21370002000F0D4
:40140000F9FB394A384B1B78DBB243F01003DBB21370012000F0EEFB374B1B78FB70324A314B1B78DBB223F01003DBB21370002000F0E0FBFB7803F00803FB702A4A2A4BC4
:401440001B78DBB243F01003DBB21370012000F0D1FB254A244B1B78DBB223F01003DBB21370FB78002B02D10A2000F0C3FB7B68013B7B60FB78002B02D07B68002BBDD196
:40148000194A194B1B78DBB223F04003DBB21370154A154B1B78DBB223F07F03DBB21370124A124B1B78DBB223F00F03DBB213700F4B1B78DBB223F00F03FB700C4AFB787A
:4014C00043F00F03DBB213700A4B1B78DBB223F00F03FB70074AFB7843F00F03DBB2137000BF0837BD4680BD205100402251004023510040245100402151004080B582B055
:4015000000AF0346FB711A4A194B1B78DBB243F02003DBB21370164A154B1B78DBB223F04003DBB21370002000F064FB104A104B1B78DBB223F00F03DBB213700C490C4B8E
:401540001B78DAB2FB791343DBB243F01003DBB20B70012000F04EFB054A054B1B78DBB223F01003DBB2137000BF0837BD4680BD2051004080B582B000AF0346FB71154A3F
:40158000144B1B78DBB223F06003DBB21370114A104B1B78DBB223F00F03DBB213700D490C4B1B78DAB2FB791343DBB243F01003DBB20B70012000F01DFB064A054B1B784E
:4015C000DBB223F01003DBB2137000BF0837BD4680BD00BF2051004080B400AF094A094B1B78DBB243F00103DBB21370064A064B1B78DBB243F00103DBB2137000BFBD46BF
:4016000080BC7047A2430040B243004080B400AF094A094B1B78DBB223F00103DBB21370064A064B1B78DBB223F00103DBB2137000BFBD4680BC7047A2430040B243004095
:4016400090B585B002AF0446084611461A462346FB710346BB710B46BB8013467B80104B00221A700E4B1878BA79F9790023019300230093002300F077F9094B1B787A8858
:40168000B988184600F016F9054B1B780221184600F0DEF8024B1B7818460C37BD4690BDCF80FF1F80B500AF034B1B78184600F09FF800BF80BD00BFCF80FF1F80B483B0EB
:4016C00000AF134B7F221A70124B80221A707F23FB710CE0FB79DB0003F1804303F5F043FA79013AD2B21A70FB79013BFB71FB79002BEFD1FB79DB0003F1804303F5F04396
:4017000000221A7000BF0C37BD4680BC704700BFD180FF1FD080FF1F80B584B000AF0346FB710123FB60FB79172B13D800F09FFD0346FB72FB79012202FA03F3DA43084B41
:401740001B681340064A1360FB7A184600F093FD0023FB60FB6818461037BD4680BD00BFD480FF1F80B485B000AF03460A46FB711346BB710123FB60FB79172B2FD8BB7974
:40178000002B0ED0FB791A01184B1344FA791101164A0A441278D2B242F02002D2B21A700DE0FB791A01114B1344FA7911010F4A0A441278D2B222F02002D2B21A70FB7915
:4017C0001A010A4B1344FA791101084A0A441278D2B242F00102D2B21A700023FB60FB6818461437BD4680BC704700BF1070004080B485B000AF0346FB710123FB60FB79ED
:40180000172B1DD8FB791A01104B1344FA7911010E4A0A441278D2B222F00102D2B21A70FB791A01094B1344FA791101074A0A441278D2B222F02002D2B21A700023FB60A8
:40184000FB6818461437BD4680BC70471070004080B485B000AF03460A46FB711346BB710123FB60FB79172B1BD8FB791A01104B13441B78DBB223F00E03FB72FB791A015B
:401880000B4B1344BA795200D2B252B202F00E0251B297F90B200A4352B2D2B21A700023FB60FB6818461437BD4680BC704700BF1070004080B485B000AF0346FB710B4632
:4018C000BB8013467B800123FB60BB8841F6FF72934202D14FF40053BB807B8841F6FF72934202D14FF400537B80FB79172B17D8FB79DB0003F1804303F5EC430433BB606E
:40190000BB68BA881A80FB79DB0003F1804303F5EC430633BB60BB687A881A800023FB60FB6818461437BD4680BC704780B485B000AF03460A46FB711346BB710123FB60C7
:40194000FB79172B07D8FB791A01064B1344BA795A720023FB60FB6818461437BD4680BC704700BF1070004090B484B000AF0446084611461A462346FB710346BB710B468C
:401980007B7113463B710123FB60FB79172B34D8FB79DB0003F1804303F5EC43BA7902F07F02D1B27A79D201D2B20A43D2B21A70FB79DB0003F1804303F5EC433A7E120102
:4019C000D1B23A7902F00F02D2B20A43D2B25A70FB79DB0003F1804303F5EC433A7F02F00F02D2B29A70FB79DB0003F1804303F5EC430022DA700023FB60FB6818461037F9
:401A0000BD4690BC704700BF80B582B000AFFF23FB7100F02CFC0346BB71104B1B78182B12D90F4B1B78FB710C4B1B78013BDAB20A4B1A70FB79DB0003F1804303F5F04379
:401A40001B78DAB2064B1A70BB79184600F013FCFB7918460837BD4680BD00BFD080FF1FD180FF1F80B584B000AF0346FB7197F90730002B19DB00F0FAFB0346FB73FB792B
:401A8000DB0003F1804303F5F0430A4A12781A70084AFB791370084B1B780133DAB2064B1A70FB7B184600F0E6FB00BF1037BD4680BD00BFD180FF1FD080FF1F90B484B038
:401AC00000AF0446084611461A462346FB710346BB800B46BB711346FB700123FB6097F90730002B23DBBB8823F47F6323F00F039BB2002B1BD1FB79DB0003F1804303F51C
:401B0000F043BB60BB68BA881A80FB79DB0003F1804303F5F043BA799A70FB79DB0003F1804303F5F043FA78DA700023FB60FB6818461037BD4690BC704700BF80B485B049
:401B400000AF0346FB710B46BB8013467B800123FB6097F90730002B17DBFB79DB0003F1804303F5F0430433BB60BB68BA881A80FB79DB0003F1804303F5F0430633BB60B7
:401B8000BB687A881A800023FB60FB6818461437BD4680BC704700BF80B483B000AF0346FB7101BE00BF0C37BD4680BC704700BF80B582B000AF786008E00C4B1B681846D8
:401BC00000F036FB7B68A3F500437B607B68B3F5004FF2D8064B1B687A6802FB03F3184600F026FB00BF0837BD4680BDE480FF1FDC80FF1F80B582B000AF0346FB80FB88D8
:401C0000054A127802FB03F3184600F011FB00BF0837BD4680BD00BFE080FF1F80B584B000AF03463960FB710F4B1B68FB60FB791F2B02D90020FFF7AFFFFB7903F01F037F
:401C400010339B00FA6813441B68BB60FB7903F01F0310339B00FA6813443A681A60BB6818461037BD4680BD08ED00E080B582B000AF03460A46FB711346BB71BB79072B10
:401C800002D90020FFF788FFFB791F2B02D90020FFF782FFFB7903F01F0303F1604303F56443BA795201D2B21A7000BF0837BD4680BD00BF80B584B000AF03460A46FB710F
:401CC0001346BB8000F0D3FA0346FB734E4B1B78DBB203F00803002B0BD14C4A4B4B1B78DBB203F01F03DBB21370FB79002B08D004E0FB7B184600F0BEFA81E00020FFF75F
:401D00004BFF00F08FF8424B1B78DAB2414B1A713F4ABB881B099BB2DBB213703E4B1B78DAB23C4B5A713C4ABB88DBB203F00F03DBB21370394B1B78DAB2364B9A71374ABD
:401D4000BB881B0B9BB2DBB203F00103DBB21370334B1B78DBB203F00703002B04D12D4B012283F82E2014E02A4B002283F82E202B4B1B78DBB203F00703DAB2254B83F8BC
:401D80002D20274A264B1B78DBB223F00703DBB213701D4A1C4B1B78DBB223F00703DBB243F00303DBB21370174B1B7800BF00BF30BF184B93F82E30012B0FD01849184B49
:401DC0001B78DBB25BB223F007035AB2114B93F82D305BB213435BB2DBB20B7000F062F90B4B0C4A12791A700B4B0A4A52791A700A4B084A92791A70FB7B184600F03BFA91
:401E00001037BD4680BD00BF9343004083460040984300409881FF1F994300409A4300400042004080B400AF804B1B78DAB2804B9A72804B1B78DAB27D4BDA727E4B1B7832
:401E4000DAB27B4B1A737D4B1B78DAB2784B5A737B4B1B78DAB2764B9A737A4B1B78DAB2734BDA73784B1B78DAB2714B1A74774B1B78DAB26E4B5A74754B1B78DAB26C4B40
:401E80009A74744B1B78DAB2694BDA74724B1B78DAB2674B1A75714B1B78DAB2644B5A756F4B1B78DAB2624B9A756E4B1B78DAB25F4BDA756C4B1B78DAB25D4B1A766B4B94
:401EC0001B78DAB25A4B5A76694B1B78DAB2584B9A76684B1B78DAB2554BDA76664B1B78DAB2534B1A77654B1B78DAB2504B5A77634B1B78DAB24E4B9A77624B1B78DAB289
:401F00004B4BDA77604B1B78DAB2494B83F820205E4B1B78DAB2464B83F821205C4B1B78DAB2434B83F822205A4B1B78DAB2404B83F82320584B1B78DAB23D4B83F8242065
:401F4000564B1B78DAB23A4B83F82520374B00221A70384B00221A70374B00221A70374B00221A70364B00221A70364B00221A70354B00221A70354B00221A70344B002250
:401F80001A70344B00221A70334B00221A70334B00221A70324B00221A70324B00221A70314B00221A70314B00221A70304B00221A70304B00221A702F4B00221A702F4B88
:401FC00000221A702E4B00221A702E4B00221A702D4B00221A702D4B00221A702C4B00221A702C4B00221A702B4B00221A702B4B00221A702A4B1B78DBB203F00803002B5B
:402000000CD00B4B012283F82F20254A244B1B78DBB223F00803DBB2137003E0044B002283F82F2000BFBD4680BC7047005A00409881FF1F025A0040035A0040045A0040DA
:40204000065A0040085A00400A5A0040105A0040125A0040135A0040145A0040165A0040185A00401A5A0040205A0040225A0040235A0040245A0040265A0040285A004040
:402080002A5A0040305A0040325A0040335A0040345A0040365A0040385A00403A5A00402243004080B400AF434B444A927A1A70434B424AD27A1A70424B404A127B1A705D
:4020C000414B3E4A527B1A70404B3C4A927B1A703F4B3A4AD27B1A703E4B384A127C1A703D4B364A527C1A703C4B344A927C1A703B4B324AD27C1A703A4B304A127D1A70D6
:40210000394B2E4A527D1A70384B2C4A927D1A70374B2A4AD27D1A70364B284A127E1A70354B264A527E1A70344B244A927E1A70334B224AD27E1A70324B204A127F1A7045
:40214000314B1E4A527F1A70304B1C4A927F1A702F4B1A4AD27F1A702E4B184A92F820201A702D4B154A92F821201A702B4B134A92F822201A702A4B104A92F823201A7041
:40218000284B0E4A92F824201A70274B0B4A92F825201A70094B93F82F30012B07D1234A224B1B78DBB243F00803DBB2137000BFBD4680BC704700BF005A00409881FF1F0D
:4021C000025A0040035A0040045A0040065A0040085A00400A5A0040105A0040125A0040135A0040145A0040165A0040185A00401A5A0040205A0040225A0040235A004028
:40220000245A0040265A0040285A00402A5A0040305A0040325A0040335A0040345A0040365A0040385A00403A5A004022430040142816D902B4012114381049097811F024
:40224000C001890904B40E4A515C04BC00BF00BF00BF8841FDD500BF00BF02BC704700BF00BF70F10400FCD570470B050709EFF3108072B6704780F310887047004800409D
:402280006A220000014B1868704700BF4881FF1F0E4B70B51E460E4C0025E41AA410A54204D056F8253098470135F8E700F0A0F8084B094C1E46E41AA4100025A54204D0DE
:4022C00056F8253098470135F8E770BDFC230000FC230000FC2300000424000010B5431E0A44914204D011F8014B03F8014FF8E710BD03460244934202D003F8011BFAE700
:402300007047000000000000496E6974207374617475733A205375636365737300000000496E6974207374617475733A204661696C757265000000004375727220737461DD
:402340007475733A20537563636573730000000043757272207374617475733A204661696C757265000000000001000003040000C05100401000F051004010000000014011
:40238000001000140140000800400140000A004C0140000200500140200000003F065B4F666D7D077F6F777C395E797100000000000103046600650033003200310067006D
:4023C000300062006100370036003500630064004500440053005200510046004700410040005700560055004200430043000000F8B500BFF8BC08BC9E4670475D0000004E
:4024000065050000F8B500BFF8BC08BC9E4670473900000028240000C880FF1F88000000900000000000000000000000040004FF807F000001000000808D5B0070170000BA
:40244000060000000000B80B0000000000000000000000000000000000000000000000000000000000000000EC230000000000000000000000000000000000000000000084
:4024800000000000000000000000000000000000000000000000000000000000000000000000000000000000E880FF1F000000000000000000000000000000000000000096
:4024C00000000000000000000000000000000000000000000000000000000000000000000000000000000000000000000000000000000000000000000000000000000000DC
:40250000000000000000000000000000000000000000000000000000000000000000000000000000000000000000000000000000000000000000000000000000000000009B
:40254000000000000000000000000000000000000000000000000000000000000000000000000000000000000000000000000000000000000000000000000000000000005B
:40258000000000000000000000000000000000000000000000000000000000000000000000000000000000000000000000000000000000000000000000000000000000001B
:020000040003F7
:0200000480007A
:4000000001450040015200400240014001410140014201400143014003480140025101400C020C103D80CE20A540A540A5402540A540C8200001100200101000000000008F
:400040001000000000000000100000100000000000000000007F7F000000000000FFFF0000000000FF0000000000000000FFFF0000000000FF0000000000000000FFFF005A
:4000800000000000FF0000000000000000FFFF0000000000FF0000000000000000000000000000000000000000000000000000000000000000000000000000000000000044
:4000C0000000000000000000000000000000000000000000000000000000000000000000000000000000000000000000000000000000000000000000000000000000000000
:4001000000000000000000000000000000000000000000000000000000000000000000000000000000000000000000000000000000000000000000000000000000000000BF
:40014000000000000000000000000000000000000000000000000000000000000000000000000000000000000000000000000000000000000000000000000000000000007F
:40018000000000000000000000000000000000000000000000000000000000000000000000000000000000000000000000000000000000000000000000000000000000003F
:0200000490006A
:0400000000000007F5
:0200000490105A
:04000000BC90ACAF55
:0200000490303A
:020000001EEFF1
:0200000490402A
:4000000000000000000000000000000000000000000000000000000000000000000000000000000000000000000000000000000000000000000000000000000000000000C0
:400040000000000000000000000000000000000000000000000000000000000000000000000000000000000000000000000000000000000000000000000000000000000080
:400080000000000000000000000000000000000000000000000000000000000000000000000000000000000000000000000000000000000000000000000000000000000040
:4000C0000000000000000000000000000000000000000000000000000000000000000000000000000000000000000000000000000000000000000000000000000000000000
:0200000490501A
:0C00000000012E12306900002E204F5825
:00000001FF