:400000000080002011000000E5070000E507000008B5044B1A6803F53F5302331A6000F001FC00BFFA46004010B5054C237833B9044B13B10448AFF300800123237010BDA2
:400040008881FF1F000000007C450000084B10B51BB108490848AFF300800848036803B910BD074B002BFBD0BDE81040184700BF000000008C81FF1F7C450000C880FF1F00
:4000800000000000000000002DE9F04100F084FD874BB3F9000002F063F8864B196802F0B3F8854B196801F0A7FF844B186001F087FC06460F464FF0010573A3D3E9002350
:4000C00001F04EFF08B94FF000054FF0010470A3D3E900233046394601F04CFF08B94FF000042C4014F0FF0F02D00022734B1A60724B1968002001F07DFF0446704B186060
:40010000704B186800F100406F4B196802F07CF805466E4B1968204601F06CFF6C4B196802F072F80146284601F066FF0546694B18606949204602F067F80146284601F046
:400140005BFF664902F060F8654B186001F038FC51A3D3E9002301F087FC51A3D3E9002301F0D0FA01F01AFF5E4B188000F062FD5D4C208000F032FDB4F9000001F0F0FF7B
:400180005A4B196802F040F8594B196801F034FF584B186001F014FC06460F464FF0010539A3D3E9002301F0DBFE08B94FF000054FF0010436A3D3E900233046394601F038
:4001C000D9FE08B94FF000042C4014F0FF0F02D00022484B1A60474B1968002001F00AFF0446454E3060454B186800F10040444F396802F009F88046424D2968204601F066
:40020000F9FE414B196801F0FFFF0146404601F0F3FE80463D4B18603D49204601F0F4FF0146404601F0E8FE014601F0E5FE394C206001F0C5FB18A3D3E9002301F014FC76
:4002400019A3D3E9002301F05DFA01F0A7FE00B2314B188080B200F059FB224B188800F0C5FB23683B6033682B601D4B1A68164B1A60134B1A68154B1A6000F0DBFC0C4B23
:400280001880BDE8F08100BF9A9999999999C93F9A9999999999C9BF295C8FC2F5E47340000000000030914000000000001895404482FF1FB882FF1F5082FF1F4082FF1FB7
:4002C0001483FF1FBC82FF1FCC81FF1FA882FF1FD881FF1F4882FF1F0AD7A33C0000A0403482FF1F4C82FF1FAC82FF1F3082FF1FD481FF1F3882FF1F2C82FF1FB482FF1FF4
:40030000A482FF1FD081FF1FC081FF1FC481FF1F8FC2F53C1883FF1FC082FF1F10B500F097FC40B20E4B1870012802D1FFF7ACFE10BD00230B4A13600B4A13600B4A1360AE
:400340000B4A136040F246500A4B18800A4C40F24C43238000F0DAFA208800F047FB10BDC881FF1F1883FF1F3482FF1F3882FF1F4082FF1FC082FF1F4C82FF1F08B500F036
:400380000DFB00F07BFB00F0F9FB00F0DFFB01F075F9334800F0BAFC62B60023314A1380314A13800023314A1360314A1360314A1360314A1360314A1360314A1360314A18
:4003C0001360314A1360314A1360314A1360314A1360314A1360314A1360314A1360314A314B1A60314A324B1A60324A324B1A60324A334B1A60334B334A1360334A1360E0
:40040000334A344B1A60344A344B1A60174B186801F0D6FA324D02460B463249284602F0F3FC134B186801F0CBFA2F4C02460B462E49204602F0E8FC0021084601F02CF96A
:40044000284601F0C1F80021012001F025F9204601F0BAF84FF4FA7000F0B0FFD6E700BF1D030000AC82FF1F4482FF1F3882FF1F4082FF1F2C82FF1F1483FF1FC481FF1F56
:400480004882FF1F1883FF1F3482FF1FA482FF1FCC81FF1F3C82FF1FB082FF1FD081FF1FA882FF1F4EB4AB3A3082FF1F0742B23AB882FF1F5C8F32C0D481FF1FC3F528C001
:4004C0005082FF1FC0688F3CBC82FF1FB482FF1F755CC33FC081FF1FA33D823FD881FF1F5482FF1F80450000C482FF1F8C450000FEE700BFF0B40022174611E050F82760AA
:40050000F3B226F0FF0608E001EB420511F812406D78A5550132013BDBB2002BF4D10137132FEBD9F0BC7047064B1B78DBB203F00701054A11701B09013213704422034B4F
:400540001A707047CF0100496E5800407658004008B50A46002101F0DEFF08BD08B501F0CFFF08BD38B500242F4B1C80502202331A70172202331A80182202331A7004228C
:400580002A492B48FFF7EAFF02222A4B1A7008224FF040231A70032103F500731970264B1B78DBB225490B70254B1A8041F25122023B1A8019250CE0224B1B7803F00103C3
:4005C00043EA440404F003044FF4F07001F084F8013D0DB1032CEFD115B90320FFF788FF194B4FF480721A8007221A70002217490A704820023108701A700222033B1A70B7
:4006000004220A331A70124A137843F003031370013A137843F001031370013A137843F08003137038BD00BF80400040E8000048004100400043004008010049A14600404A
:4006400022420040254200400440004006400040A2430040012807D8044B53F820201844017A13780B431370704700BF98450000012808D8044B53F820201844017A137853
:4006800023EA01031370704798450000FF22044B1A700023034A137002F6B31213707047CC80FF1F4D5100400F4A137801335BB21370072B05D8DFE803F0070F040404044F
:4006C00004040022084B1A700222084B1A70202203F6B3131A7070470822044B1A70802203F6B3131A707047CC80FF1F4D51004070B572B62B4A137843F004031370002495
:400700000BE0294863001A19510001440A46098AD068FFF71DFF0134E4B20A2CF1D923494FF09040FFF7E6FE0A25214B1D70214A137843F0020313701032137843F0020306
:4007400013701D4C237843F040032370A2F58632513A137843F010031370082217491848FFF7FCFE082217491748FFF7F7FE2A4616491748FFF7F2FE164A137843F00803D0
:400780001370154E01253570FFF7ECFE81233370124B1D70FFF7C8FE0E2221461048FFF7DDFE70BDE846004098450000500000488358004003500140A0430040CC00004805
:4007C00012510040D400004822510040DC00004840510040224300400048004004000840B043004008B501F05FFE03680C2B00D1FEE7FEE708B5094B1A681044084BC31A87
:40080000B3F5007F02DC054B186005E001F04CFE0C2303604FF0FF32104608BDD080FF1F2883FF1F08B5104E104D16E029686B68AC68002204E051F8040B43F8040B0432B3
:40084000A242F8D1E868002203E0002143F8041B04328242F9D11035013E002EE6D101F029FEFFF78BFDFEE7010000007047000008B5104A104B1A60104A136843F4007330
:40088000136000230AE0032B03D80D4A52F8231000E00C490C4A42F8231001332F2BF2D90A4B1A780A4B1A70074A0A4B1A60FFF71FFF08BD0004FA050CED00E014ED00E00E
:4008C00000000000E50700000080FF1FBC760040C080FF1F08ED00E0084A137843F0010313701032137843F00103137002F64D32137843F001031370704700BFA343004053
:40090000014B1880704700BF044F0040014B1880704700BF064F0040014B1870704700BF034F004008B51A4A137843F0020313700232137803F08F0343F010031370154B2B
:400940001A7802F0CF021A701A7842F030021A701A7802F0F0021A701A7842F00F021A7044F61F60FFF7CCFF40F2DB50FFF7CEFF0020FFF7D1FF084A137843F001031370A2
:4009800002F65E32137843F00103137008BD00BF004F00400B4F0040A343004008B5054B1B7823B9FFF7BEFF0122024B1A70FFF793FF08BDA481FF1F084A137843F00203C9
:4009C00013701032137843F00203137002F65932137843F001031370704700BFA3430040014B1880704700BF104F0040014B1880704700BF124F0040014B1870704700BF4A
:400A00000F4F004008B51A4A137843F0020313700232137803F08F0343F010031370154B1A7802F0CF021A701A7842F030021A701A7802F0F0021A701A7842F00F021A7086
:400A400044F61F60FFF7CCFF40F2DB50FFF7CEFF0020FFF7D1FF084A137843F00203137002F66A32137843F00103137008BD00BF0C4F0040174F0040A343004008B5054B8D
:400A80001B7823B9FFF7BEFF0122024B1A70FFF793FF08BDA581FF1F084A137843F0040313701032137843F00403137002F66532137843F001031370704700BFA3430040F5
:400AC000014B1870704700BF1B4F0040014B1880704700BF1C4F0040014B1880704700BF1E4F004008B5164A137803F0010313700232137803F0FC031370124B1A7802F0BF
:400B0000CF021A701A7842F030021A701A7802F0F0021A701A7842F00F021A700A4A137843F00103137044F61F60FFF7CFFF44F61F60FFF7D1FF0020FFF7C2FF08BD00BF8B
:400B4000184F0040234F0040194F004008B5054B1B7823B9FFF7C6FF0122024B1A70FFF79BFF08BDA681FF1F08B500F0DDF800F0E7F908BD08B500F045FA08BD08B5054BD4
:400B80001B7823B9FFF7F0FF0122024B1A70FFF7F1FF08BDA781FF1F08B50F4A137803F0F10343F00C0313700132137803F0F10343F00C031370023A137803F0F10313700E
:400BC000013A137803F0F103137000F0B1F808B1FFF76AFD08BD00BF2250004008B5144A137803F0F10343F00C0313700132137803F0F10343F00C0313700232137803F072
:400C0000F1031370013A137803F0F103137000F08FF810B9FFF748FD08BD00F089F8B0F1FF3F03D1FFF740FDFFF73EFD08BD00BF2050004008B500F051FA002000F056FAB9
:400C400000F06CFA0122014B5A7008BDA781FF1F10B51E4C237803F0F10343F00C032370052000F0C1FB237803F0F10343F00403237000F05DF808B1FFF716FD144A137844
:400C800003F0F10313700332137803F0F1031370013A137803F0F10343F00C0313700D4B5B781BB9142000F09FFB05E00022094B5A70082000F098FBFFF7BCFFB0F5EF6FED
:400CC00001DA012010BD002010BD00BF2150004020500040A781FF1F014B1B681864704708ED00E04001C0B2014B1870704700BF00E400E00122014B1A60704700E100E0DF
:400D00000122014B1A60704780E100E010B50446FFF7F6FF2046FFF7DFFF0720FFF7E2FFFFF7E8FF10BD00BF08B5FFF7AFFC08BD014B93F900007047CC80FF1F10B59DF8C1
:400D40000840012C51D1013809282ED8DFE800F0052D2D052D2D0F192D230F2B03D92548007840B222E02448007840B21EE00F2B03D92248007840B218E02148007840B207
:400D800014E00F2B03D91F48007840B20EE01E48007840B20AE00F2B03D91C48007840B204E01B48007840B200E0002001EB401101FB02F1C90B8AB20D2B0BD8C3F10E0200
:400DC00089B211418AB2611E124800EB810101338B7005E0631E0F4901EB83030F219970013C0C4B23F8242010BD002000F0E4FA10BD00BF180100491C01004919010049E7
:400E00001D0100491A0100491E0100491B0100491F010049AC81FF1FF8B5074600F064FC06460D4D2B7843F003032B700B4C237843F0030323700A4B1F70032000F0D4FA7C
:400E40002B7803F0FC032B70237803F0FC032370304600F04DFCF8BDF8460040F946004092580040F8B50022304B1A7101285CD130222F4B1A70062202331A7008220133D1
:400E80001A70002401331C7001331C701F2201331A7002331C7001331C7001331C7001250A331D70142203F527631A70052701331F70162201331A7001331C704422033351
:400EC0001A70482201331A7001331D70022602331E70222201331A70282201331A70EB2201331A705220FFF797FF5822114B1A7001331C7005331F7001331E7001331C7058
:400F000001331C70204600F043F940F233320A4B1A602946304600F05FF929460A2000F0DFF906491D2000F069FAF8BDAC81FF1F004E0040945800402083FF1F6D11000093
:400F4000F0B583B0284D01272F70284E00247471102000F02FF9102000F0B0F907211D2000F060FA0422224B1A7001331C7007331C70204A137843F0180313701E4B1C70C0
:400F800003F2F5231C7001331C700A22A3F209331A7001331C7002331C70122205331A70132201331A7004331C701422A3F68C231A7000970C234FF4004248F66B510220B5
:400FC000FFF7BCFE2B78013B06EB83039A780B4B1A702B78013B36F82320094B1A802878FFF740FF03B0F0BDD480FF1FAC81FF1F96580040075B0040935800400E4E004032
:401000000C4E004070B500F06FFB06462A4B1B782A4B1A7842F001021A701A7842F010021A7010331A7842F001021A701A7842F010021A70224D2B7843F002032B70214CD7
:40104000237843F0020323701F4A137843F003031370032000F0C8F92B7803F0FD032B70237803F0FD032370184A137843F0060313707A22164B1A70164A137843F00103DF
:4010800013701032137843F0010313700F3A137843F0010313701032137843F0010313704FF000530C4A1360A2F5C0721360304600F01EFB70BD00BFD480FF1FAA43004070
:4010C000F8460040F9460040915800407758004082580040A143004080E200E0024A137843F0010313707047004E0040094B1B7913F0FF0F03D0074B5B79DBB203E0064BB2
:401100001B7803F00103012B01D00028EED01846704700BFAC81FF1F014E00400E4B1B7803F00303012B03D80C4B188880B209E00A4A12780A49087842EA0020032B01D199
:40114000084B1B78084B1B7913F0FF0F02D00022054B5A7100B27047144E0040104E0040114E0040124E0040AC81FF1F704700BF10B5002404E02046FFF77AFA0134E4B271
:40118000012CF8D9FF22014B1A7010BDD580FF1F10B50446FFF7ECFF2046FFF75BFA014B1C7010BDD580FF1F014B188880B2704780400040034B1A7800F0F80010431870C9
:4011C000704700BF82400040024B187800F00700704700BF8240004070B505460E46FFF7F3FF0446FFF7E0FFA84256D02B4B1B7803F0010294B900B185B938B9284B1D8014
:40120000284A137803F0BF03137070BD254A137843F040031370224B1D8070BD22B3002321490B7001240F310C7004310B700C390B7803F07F030B701A4B1B7813F0080FEA
:4012400000D08DB9194B18800721013B1970164B1B7813F0010FFAD110490B7803F0FE030B700021104B19700C4B1B7813F0010F0DD00E4B1D800EB1032200E001220A4B41
:401280001A70094B1B7813F0010FFAD170BD044B1D8002490B7813430B7070BDA243004080400040824000400140004002400040014B188880B2704700410040034B1A789A
:4012C00000F0F80010431870704700BF02410040024B187800F00700704700BF0241004070B505460E46FFF7F3FF0446FFF7E0FFA84256D02B4B1B7803F0010294B900B18D
:4013000085B938B9284B1D80284A137803F0BF03137070BD254A137843F040031370224B1D8070BD22B3002321490B70012413310C7004390B7008390B7803F07F030B70B4
:401340001A4B1B7813F0080F00D08DB9194B18800721013B1970164B1B7813F0010FFAD110490B7803F0FE030B700021104B19700C4B1B7813F0010F0DD00E4B1D800EB1AB
:40138000032200E001220A4B1A70094B1B7813F0010FFAD170BD044B1D8002490B7813430B7070BDA14300400041004002410040014000400240004001BE704710B50446CC
:4013C00005E0084B186800F087F9A4F50044B4F5004FF6D8034B586800FB04F000F07CF910BD00BFD880FF1F08B5034B1B7A00FB03F000F071F908BDD880FF1F70B504462C
:401400000E46074B1D681F2802D90020FFF7D4FF04F01F04103455F8240045F8246070BD08ED00E038B504460D46072902D90020FFF7C2FF1F2C02D90020FFF7BDFF04F08F
:401440001F0000F1604000F564406D01EDB2057038BD00BF10B50B4C237803F09F032370237803F0F00323702378184340F0100020700120FFF7B8FF237803F0EF03237053
:4014800010BD00BF2051004038B505460E4C237843F020032370237803F0BF0323700020FFF7A2FF237803F0F003237023781D4345F0100525700120FFF796FF237803F017
:4014C000EF03237038BD00BF2051004070B5354B1A7802F08002D2B21A7033490A7802F0F00242F00F020A7001310A7802F0F0020A7001310A7802F0F0020A701A7802F002
:40150000DF021A701A7842F040021A704FF4CA760020FFF769FF234D2B7843F010032B700120FFF761FF214B1C78E4B22B7803F0EF032B700020FFF757FF04F00804E4B289
:401540002B7843F010032B700120FFF74DFF2B7803F0EF032B7014B90A20FFF745FF013E0CB1002ED4D10F4A137803F0BF031370137803F08003DBB213700232137803F082
:40158000F00313700132137803F0F00343F00F0313700132137803F0F00343F00F03137070BD00BF20510040225100402151004010B50446FFF78AFF2009FFF765FF04F0D6
:4015C0000F00FFF761FF10BD38B505460078012404E0FFF7EDFF285D0134E4B20028F8D138BD00BF10B50446FFF770FF2009FFF731FF04F00F00FFF72DFF10BD08B528206F
:40160000FFF7DCFE0320FFF725FF0520FFF7D6FE0320FFF71FFF0F20FFF7D0FE0320FFF719FF0120FFF7CAFE0220FFF713FF0520FFF7C4FE0620FFF7D5FF0E20FFF7D2FF88
:401640002C20FFF7CFFF0820FFF7CCFF0120FFF7C9FF0C20FFF7C6FF0320FFF7C3FF0520FFF7ACFE08BD00BF08B50C20FFF7BAFF0122014B1A7008BDB481FF1F08B5054BD1
:401680005B7823B9FFF7BAFF0122024B5A70FFF7EBFF08BDB481FF1F08B5032819D8DFE800F002070D1381F08000FFF79BFF08BDA1F14000C0B2FFF795FF08BDA1F16C000A
:4016C000C0B2FFF78FFF08BDA1F12C00C0B2FFF789FF08BD000000000230800803D000BF01380046FCD17047EFF3108072B6704780F31088704700BF81F0004102E000BF48
:4017000083F0004330B54FEA41044FEA430594EA050F08BF90EA020F1FBF54EA000C55EA020C7FEA645C7FEA655C00F0E2804FEA5454D4EB5555B8BF6D420CDD2C4480EADE
:40174000020281EA030382EA000083EA010180EA020281EA0303362D88BF30BD11F0004F4FEA01314FF4801C4CEA113102D0404261EB410113F0004F4FEA03334CEA133372
:4017800002D0524263EB430394EA050F00F0A780A4F10104D5F1200E0DDB02FA0EFC22FA05F2801841F1000103FA0EF2801843FA05F359410EE0A5F120050EF1200E012AC7
:4017C00003FA0EFC28BF4CF0020C43FA05F3C01851EBE37101F0004507D54FF0000EDCF1000C7EEB00006EEB0101B1F5801F1BD3B1F5001F0CD349085FEA30004FEA3C0CF6
:4018000004F101044FEA445212F5800F80F09A80BCF1004F08BF5FEA500C50F1000041EB045141EA050130BD5FEA4C0C404141EB010111F4801FA4F10104E9D191F0000F9F
:4018400004BF01460020B1FA81F308BF2033A3F10B03B3F120020CDA0C3208DD02F1140CC2F10C0201FA0CF021FA02F10CE002F11402D8BFC2F1200C01FA02F120FA0CFC40
:40188000DCBF41EA0C019040E41AA2BF01EB0451294330BD6FEA04041F3C1CDA0C340EDC04F11404C4F1200220FA04F001FA02F340EA030021FA04F345EA030130BDC4F1BA
:4018C0000C04C4F1200220FA02F001FA04F340EA0300294630BD21FA04F0294630BD94F0000F83F4801306BF81F480110134013D4EE77FEA645C18BF7FEA655C29D094EA5E
:40190000050F08BF90EA020F05D054EA000C04BF1946104630BD91EA030F1EBF0021002030BD5FEA545C05D14000494128BF41F0004130BD14F580043CBF01F5801130BD4A
:4019400001F0004545F0FE4141F470014FF0000030BD7FEA645C1ABF194610467FEA655C1CBF0B46024650EA013406BF52EA033591EA030F41F4002130BD00BF90F0000FD0
:4019800004BF0021704730B54FF4806404F132044FF000054FF0000150E700BF90F0000F04BF0021704730B54FF4806404F1320410F0004548BF40424FF000013EE700BF88
:4019C00042004FEAE2014FEA31014FEA02701FBF12F07F4393F07F4F81F06051704792F0000F14BF93F07F4F704730B54FF4607401F0004521F0004120E700BF50EA0102B4
:401A000008BF704730B54FF000050AE050EA010208BF704730B511F0004502D5404261EB41014FF4806404F132045FEA915C3FF4DCAE4FF003025FEADC0C18BF03325FEA39
:401A4000DC0C18BF033202EBDC02C2F1200300FA03FC20FA02F001FA03FE40EA0E0021FA02F11444C1E600BF70B54FF0FF0C4CF4E06C1CEA11541DBF1CEA135594EA0C0F83
:401A800095EA0C0F00F0DEF82C4481EA030621EA4C5123EA4C5350EA013518BF52EA033541F4801143F4801338D0A0FB02CE4FF00005E1FB02E506F00042E0FB03E54FF08F
:401AC0000006E1FB03569CF0000F18BF4EF0010EA4F1FF04B6F5007F64F5407404D25FEA4E0E6D4146EB060642EAC62141EA55514FEAC52040EA5E504FEACE2EB4F1FD0CFA
:401B000088BFBCF5E06F1ED8BEF1004F08BF5FEA500E50F1000041EB045170BD06F0004646EA010140EA020081EA0301B4EB5C04C2BFD4EB0C0541EA045170BD41F4801141
:401B40004FF0000E013C00F3AB8014F1360FDEBF002001F0004170BDC4F10004203C35DA0C341BDC04F11404C4F1200500FA05F320FA04F001FA05F240EA020001F00042C4
:401B800021F0004110EBD37021FA04F642EB06015EEA430E08BF20EAD37070BDC4F10C04C4F1200500FA04F320FA05F001FA04F240EA020001F0004110EBD37041F1000113
:401BC0005EEA430E08BF20EAD37070BDC4F1200500FA05F24EEA020E20FA04F301FA05F243EA020321FA04F001F0004121FA04F220EA020000EBD3705EEA430E08BF20EACD
:401C0000D37070BD94F0000F0FD101F00046400041EB010111F4801F08BF013CF7D041EA060195F0000F18BF704703F00046520043EB030313F4801F08BF013DF7D043EAFB
:401C40000603704794EA0C0F0CEA135518BF95EA0C0F0CD050EA410618BF52EA4306D1D181EA030101F000414FF0000070BD50EA410606BF1046194652EA430619D094EAED
:401C80000C0F02D150EA013613D195EA0C0F05D152EA03361CBF104619460AD181EA030101F0004141F0FE4141F470014FF0000070BD41F0FE4141F4780170BD70B54FF0BF
:401CC000FF0C4CF4E06C1CEA11541DBF1CEA135594EA0C0F95EA0C0F00F0A7F8A4EB050481EA030E52EA03354FEA013100F088804FEA03334FF0805545EA131343EA126371
:401D00004FEA022245EA111545EA10654FEA00260EF000419D4208BF964244F1FD0404F5407402D25B084FEA3202B61A65EB03055B084FEA32024FF480104FF4002CB6EBCF
:401D4000020E75EB030E22BFB61A754640EA0C005B084FEA3202B6EB020E75EB030E22BFB61A754640EA5C005B084FEA3202B6EB020E75EB030E22BFB61A754640EA9C0038
:401D80005B084FEA3202B6EB020E75EB030E22BFB61A754640EADC0055EA060E18D04FEA051545EA16754FEA06164FEAC30343EA52734FEAC2025FEA1C1CC0D111F4801F7E
:401DC0000BD141EA00014FF000004FF0004CB6E711F4801F04BF01430020B4F1FD0C88BFBCF5E06F3FF6AFAEB5EB030C04BFB6EB020C5FEA500C50F1000041EB045170BD6D
:401E00000EF0004E4EEA113114EB5C04C2BFD4EB0C0541EA045170BD41F480114FF0000E013C90E645EA060E8DE60CEA135594EA0C0F08BF95EA0C0F3FF43BAF94EA0C0FF5
:401E40000AD150EA01347FF434AF95EA0C0F7FF425AF104619462CE795EA0C0F06D152EA03353FF4FDAE1046194622E750EA410618BF52EA43067FF4C5AE50EA41047FF4E3
:401E80000DAF52EA43057FF4EBAE12E74FF0FF3C06E000BF4FF0010C02E000BF4FF0010C4DF804CD4FEA410C7FEA6C5C4FEA430C18BF7FEA6C5C1BD001B050EA410C0CBF3A
:401EC00052EA430C91EA030F02BF90EA020F0020704710F1000F91EA030F58BF994208BF90422CBFD8176FEAE37040F0010070474FEA410C7FEA6C5C02D150EA013C07D138
:401F00004FEA430C7FEA6C5CD6D152EA033CD3D05DF8040B704700BF8446104662468C461946634600E000BF01B5FFF7B7FF002848BF10F1000F01BD4DF808EDFFF7F4FF86
:401F40000CBF012000205DF808FB00BF4DF808EDFFF7EAFF34BF012000205DF808FB00BF4DF808EDFFF7E0FF94BF012000205DF808FB00BF4DF808EDFFF7CEFF94BF0120AF
:401F800000205DF808FB00BF4DF808EDFFF7C4FF34BF012000205DF808FB00BF4FEA410212F5001215D211D56FF47873B3EB625212D94FEAC12343F0004343EA505311F05B
:401FC000004F23FA02F018BF404270474FF00000704750EA013005D111F0004008BF6FF0004070474FF00000704700BF80F0004002E000BF81F0004142001FBF5FEA410379
:4020000092EA030F7FEA226C7FEA236C6AD04FEA1262D2EB1363C1BFD218414048404140B8BF5B42192B88BF704710F0004F40F4000020F07F4018BF404211F0004F41F48F
:40204000000121F07F4118BF494292EA030F3FD0A2F1010241FA03FC10EB0C00C3F1200301FA03F100F0004302D5494260EB4000B0F5000F13D3B0F1807F06D340084FEA3E
:40208000310102F10102FE2A51D2B1F1004F40EBC25008BF20F0010040EA03007047490040EB000010F4000FA2F10102EDD1B0FA80FCACF1080CB2EB0C0200FA0CF0AABF07
:4020C00000EBC25052421843BCBFD0401843704792F0000F81F4000106BF80F400000132013BB5E74FEA41037FEA226C18BF7FEA236C21D092EA030F04D092F0000F08BF1E
:402100000846704790EA010F1CBF0020704712F07F4F04D1400028BF40F00040704712F100723CBF00F50000704700F0004343F0FE4040F4000070477FEA226216BF0846B0
:402140007FEA23630146420206BF5FEA412390EA010F40F4800070474FF0000304E000BF10F0004348BF40425FEA000C08BF704743F0964301464FF000001CE050EA01022F
:4021800008BF70474FF000030AE000BF50EA010208BF704711F0004302D5404261EB41015FEA010C02BF84460146002043F0B64308BFA3F18053A3F50003BCFA8CF2083A1D
:4021C000A3EBC25310DB01FA02FC634400FA02FCC2F12002BCF1004F20FA02F243EB020008BF20F00100704702F1200201FA02FCC2F1200250EA4C0021FA02F243EB020073
:4022000008BF20EADC7070474FF0FF0C1CEAD0521EBF1CEAD15392EA0C0F93EA0C0F6FD01A4480EA010C400218BF5FEA41211ED04FF0006343EA501043EA5111A0FB0131D1
:402240000CF00040B1F5000F3EBF490041EAD3715B0040EA010062F17F02FD2A1DD8B3F1004F40EBC25008BF20F00100704790F0000F0CF0004C08BF49024CEA502040EACA
:4022800051207F3AC2BFD2F1FF0340EAC250704740F400004FF00003013A5DDC12F1190FDCBF00F000407047C2F10002410021FA02F1C2F1200200FA02FC5FEA310040F1A8
:4022C000000053EA4C0308BF20EADC70704792F0000F00F0004C02BF400010F4000F013AF9D040EA0C0093F0000F01F0004C02BF490011F4000F013BF9D041EA0C018FE7C3
:402300000CEAD15392EA0C0F18BF93EA0C0F0AD030F0004C18BF31F0004CD8D180EA010000F00040704790F0000F17BF90F0004F084691F0000F91F0004F14D092EA0C0F9B
:4023400001D142020FD193EA0C0F03D14B0218BF084608D180EA010000F0004040F0FE4040F40000704740F0FE4040F4400070474FF0FF0C1CEAD0521EBF1CEAD15392EA2E
:402380000C0F93EA0C0F69D0A2EB030280EA010C49024FEA402037D04FF0805343EA111143EA10130CF000408B4238BF5B0042F17D024FF4000C8B4224BF5B1A40EA0C00D5
:4023C000B3EB510F24BFA3EB510340EA5C00B3EB910F24BFA3EB910340EA9C00B3EBD10F24BFA3EBD10340EADC001B0118BF5FEA1C1CE0D1FD2A3FF650AF8B4240EBC25038
:4024000008BF20F0010070470CF0004C4CEA50207F32C2BFD2F1FF0340EAC250704740F400004FF00003013A37E792F0000F00F0004C02BF400010F4000F013AF9D040EA57
:402440000C0093F0000F01F0004C02BF490011F4000F013BF9D041EA0C0195E70CEAD15392EA0C0F08D142027FF47DAF93EA0C0F7FF470AF084676E793EA0C0F04D14B02AE
:402480003FF44CAF08466EE730F0004C18BF31F0004CCAD130F000427FF45CAF31F000437FF43CAF5FE700BF014B1868704700BF4881FF1F0E4B70B51E460E4C0025E41AD1
:4024C000A410A54204D056F8253098470135F8E702F03CF9084B094C1E46E41AA4100025A54204D056F8253098470135F8E770BD58470000584700005847000060470000C9
:4025000010B5431E0A44914204D011F8014B03F8014FF8E710BD03460244934202D003F8011BFAE770472DE9F04788B0149F002B1E461299B8BF03F1004327F02007B6BF7C
:402540001E4600232D23462F1446109DDDF84CA00B7003D0452F03D1013501E0032300E0022307AA049206AA03928DE828042246334600F001FD472F804602D1119BDB07D6
:4025800028D5462F08EB050911D198F80030302B0AD10022002320463146FFF7CDFC18B9C5F10105CAF80050DAF8003099440022002320463146FFF7BFFC08B9302202E0A9
:4025C000CDF81C9006E0079B994503D9591C07911A70F8E74046079B159AC8EB0303136008B0BDE8F087034673B50029B8BF494203F8022BB4BF2D222B22092942701ADD2D
:402600000DF1070216460A2591FBF5F405FB1411092C01F1300102F8011D2146F4DC3031541E02F8011CB4421A460AD214F8012B03F8012BF7E71A463024214402F8024B0E
:402640005970101A02B070BD2DE9F04F91B00C46DDF8688016461F46054601F025FA03681846099300F0F4FB00230E93D8F800300A90073323F0070303F1080294F818909C
:40268000D4F800B0C8F80020D3E90023C4E91223D4F84CA0D4F848802AF000430B934FF0FF32A74B40460B9901F052FFA0B94FF0FF32A34B40460B99FFF752FC60B9002288
:4026C000002340465146FFF741FC10B12D2384F843309C4B9C4A0AE0424653464046514601F036FF002800F09281984B984AB9F1470F8CBF90469846032323612BF0040391
:4027000023604FF0000A3DE0B9F1670F00F08A81B9F1470F00F0868123600193636800210DF13302059002920093424653460691CDF81090CDF80CE02846FFF7F4FE09F08F
:40274000DF03472B804600F08481B9F1650F0D9900F28D8101394A4604F150000D91FFF742FF0E9A82468318012A236100F37C812268D10700F178819DF8333013B12D23A0
:4027800084F84330009733460FAA2146284600F09FF9013002D14FF0FF3096E123685A0501D4236965E0B9F1650F40F2D580D4E9120100220023FFF7BFFB78B30123654A23
:4027C00031462846B8470130E5D00E9B0D9A9A420BDB2368D80708D423689B0740F111814FF0000804F1190906E10A9B099A31462846B8470130CED04FF0000804F11A0928
:402800000E9B013B9845E7DA01234A4631462846B8470130BFD008F10108F1E70D9B002B29DC01234B4A31462846B8470130B2D00D9B23B90E9B13B92368D907CCD50A9B11
:40284000099A31462846B8470130A4D04FF0000904F11A0A0D9B5B42994509DA0123524631462846B847013095D009F10109F1E70E9B4246A7E00E9AA36D9A42A8BF1A46A0
:40288000002A914606DC4FF0000A29EAE97904F11A0B11E01346314642462846B8470130F1D178E701235A4631462846B84701303FF471AF0AF1010AA36DC9EB0302924583
:4028C000F0DB08EB03090D9A0E9B9A420FDB2368DA070CD40E9B0D9A9844C9EB08089B1A9845A8BF9846B8F1000F08DC0FE00A9B099A31462846B8470130EBD14BE7434686
:402900004A4631462846B84701303FF444AF4FF0000928EAE87804F11A0A09E00123524631462846B84701303FF435AF09F101090D9A0E9B9B1AC8EB03039945EEDB4BE78D
:40294000FFFFEF7FE8450000EC450000F0450000F4450000F84500000E9A012A01DCDB0738D50123424631462846B84701303FF412AF0A9B099A31462846B84701303FF4FE
:402980000AAFD4E9120100220023FFF7D5FA20B14FF0000804F11A090EE00E9B08F10102013B19E001234A4631462846B84701303FF4F1AE08F101080E9B013B9845F1DB61
:4029C000534604F1500231462846B84701307FF403AFE0E64246012331462846B8470130EED1D8E601234A4631462846B84701303FF4D1AE08F10108E3680F9A9B1A9845B6
:402A0000F0DBE0680F9B9842B8BF18465DE062680EA8531C0DF1340E4BF480637FF474AE062201E012B90122626075E6002106910DF133018DE80C00236005904246CDF823
:402A40001090CDF80CE0029153462846FFF76BFD80460D9BD81C02DB626893421DDDA9F102095FFA89F970E60133236184E6B9F1660F14D10029636807DD216113B9226889
:402A8000D2071DD501330B4419E013B92268D00701D5023313E0012311E04FF067090D9B0E9A934205DB22682361D10708D5013305E0002BD4BFC3F1020301231344236189
:402AC0000D9B4FF0000AA36556E611B0BDE8F08F2DE9F04791461F460A698B6806469342B8BF1346C9F8003091F843200C46DDF8208012B10133C9F800302368990642BF25
:402B0000D9F800300233C9F80030256815F0060510D104F1190A07E00123524639463046C04701301AD00135E368D9F800209B1A9D42F1DB94F843302268003318BF012395
:402B400092060FD5E118302081F843005A1C94F845102244023382F8431003E04FF0FF30BDE8F08704F1430239463046C0470130F4D02268D9F80050E36802F00602042A5F
:402B800008BF5D1B2269A3680CBF25EAE57500259342C4BF9B1AED184FF000091A344D4509D00123224639463046C0470130D5D009F10109F3E70020BDE8F0872DE9F04313
:402BC00017460A7E85B06E2A984606460C460C9B01F1430E00F0AE8011D8632A22D009D8002A00F0BB80582A40F0CA8081F84520834955E0642A1ED0692A1CD0C0E0732AEE
:402C000000F0B08009D86F2A2ED0702A40F0B8800A6842F020020A603EE0752A24D0782A3AD0ADE01A6801F14205111D1960136884F84230A8E021681A6811F0800F02D020
:402C4000111D196008E011F0400F02F10401196002D0B2F9003000E01368002B3CDA2D225B4284F8432037E021681A6811F0800F02D0111D196007E011F0400F02F1040196
:402C8000196001D0138800E01368227E5C496F2A14BF0A2208221BE078225A4984F845202268186812F0800F00F104051D6003D1550601D5038800E00368D00744BF42F0BB
:402CC000200222601BB9226822F0200222601022002084F8430001E049490A226568002DA56008DB206820F0040020602BB9002D7DD175460CE0002B79D07546B3FBF2F0A9
:402D000002FB1033CB5C05F8013D03460028F5D1082A0BD12368DA0708D5236962689A42DEBF302305F8013C05F1FF35C5EB0E0323612EE008681A6810F0800F496903D084
:402D4000101D1860136808E010F0400F02F104001860136801D0198000E0196000232361754616E01A68111D1960156800216268284600F0A5FE08B1401B6060636804E0E2
:402D800004F1420584F8422001232361002384F84330CDF800803B4603AA21463046FFF797FE013002D14FF0FF3026E023692A4639463046C0470130F5D023689B0710D5EC
:402DC000002504F1190907E001234A4639463046C0470130E7D00135E368039A9B1A9D42F2DBE068039B9842B8BF184605E00B7804F1420584F842308AE705B0BDE8F08334
:402E0000FA4500000B4600000EB400B54FF402719CB0ADF814106FF00041049107914FF6FF711DAB02900690084853F8042BADF81610006802A9019301F038FA029B002230
:402E40001A701CB05DF804EB03B070474881FF1F034613F8012B002AFBD1181A013870472DE9F74F03690C6980469C427FDC013C01F114074FEA840E00F1140606EB0E0371
:402E800057F82450019356F824300135B3FBF5F507EB0E09C5B34FF0000A3846B446D34650F8043B9AB205FB02A21B0C4FEA124A05FB03A392B2C2EB0B0BBCF800204FEA03
:402EC000134A5A441FFA83FBDCF800308145CBEB134303EB224392B242EA03424FEA234B4CF8042BDCD256F80E306BB9019B043B9E421A4602D3C8F8104005E01268043B4C
:402F0000002AF8D1013CF3E7404600F0F4FF00282BDB304601354FF0000E57F8042B036891B2C1EB0E0E120C99B27144C2EB134303EB214389B24FEA234EB94541EA03433C
:402F400040F8043BE9D256F8242006EB840362B9043B9E421A4602D3C8F8104005E01268043B002AF8D1013CF3E7284600E0002003B0BDE8F08F00002DE9F04F456A95B060
:402F80008246219CCDE9022345B9102000F090FDCAF82400456085600560C560DAF82430196859B15A68012393404A608B60504600F0C9FDDAF8243000221A60039BA04A77
:402FC000002BBDBF01232360039B0023BCBF23F000430393DDF80C80A8BF236028F000431B0D1B0593421DD142F20F73209A1360029B43B9934A944BC8F31300002814BFA9
:403000001846104600E09048229B002B00F04685C37813B100F1080300E0C31C229A136000F03CBDDDE902450022002320462946FEF782FF074658B1209A01231360229BAE
:40304000002B00F01E8581481860013800F026BD12AB019313AB009322462B46504600F0C5FFC8F30A56049056B1C5F3130343F07F51204641F44011A6F2FF3611971DE09B
:40308000139B129E1E4406F23243202B0ADD029A06F21240C3F1400322FA00F008FA03F3184304E0C3F12000029B03FA00F0FEF765FC0123A1F1F871013E11930022644B0A
:4030C000FEF71EFB58A3D3E90023FEF7CDFC58A3D3E90023FEF716FB044630460D46FEF75DFC55A3D3E90023FEF7BEFC02460B4620462946FEF706FB04460D46FEF74EFF20
:4031000000228346002320462946FEF71FFF58B15846FEF743FC02460B4620462946FEF70BFF08B90BF1FF3BBBF1160F0DD8DDE90223484901EBCB01D1E90001FEF724FF9D
:4031400030B10BF1FF3B002300E00123109300E01090129B9E1B731E079343BFC3F10008002307934FF00008BBF1000F06DB079BCDF82CB05B440793002705E00023CBEB9E
:403180000808CBF100070B931E9B092B28D8052BC4BF043B1E931E9BC8BF0025A3F10203D8BF0125032B20D8DFE803F0060E0204012302E0012308E000230A931F9B002BA2
:4031C0001DDD9946059321E000230A931F9B0BEB030909F10103012B0593B8BF012315E0012500231E930A9501E001230A934FF0FF390022CDF8149012231F9206E04FF047
:4032000001094B46CDF81490CDF87C90DAF8244000226260042101F114029A421CD86268490001326260F6E761436F63A787D23FB3C8608B288AC63FFB799F501344D33F1F
:403240000000F07F1C46000025460000F94500000000F83F384600006168504600F03EFCDAF8243020601B680693059B0E2B00F25B81002D00F05881DDE90234BBF1000F80
:40328000CDE90E3430DD9F4A0BF00F034FEA2B1502EBC303E80618CBCDE908340CD5DDE90E01994B05F00F05D3E90823FEF706FD0324CDE9020100E00224934E6DB1E907CD
:4032C00008D5DDE90801D6E90023FEF7CDFBCDE9080101346D100836F0E7DDE90823DDE90201FEF7EBFC20E0CBF1000505B3DDE90E01844B05F00F0203EBC203D3E90023B2
:40330000FEF7B2FBCDE902017F4E2D110023022455B1EA0705D5D6E90023FEF7A5FB013401236D100836F3E71BB1CDE9020100E00224109BE3B1DDE902560022734B284672
:403340003146FEF703FE98B1059B8BB1B9F1000F40F3E6800BF1FF330893314600226C4B2846FEF781FB0134CDE902014E4602E0059ECDF820B02046FEF710FBDDE9022384
:40338000FEF772FB634B0022FEF7BCF9A1F1507304460C931D46D6B9DDE9020100225E4BFEF7AEF922460C9BCDE90201FEF7ECFD002840F03F820C99224601F10043DDE90A
:4033C0000201FEF7C3FD002840F02B82A8E00A9A4C4B711E002A49D003EBC103D3E9002300204E49FEF76AFC22462B46FEF788F9CDE90C01069CDDE90201FEF7CFFD05464F
:40340000FEF7CCFA02460B46DDE90201FEF778F9DDE90C23303504F8015BCDE90201FEF795FD002840F01D83DDE9022300203749FEF766F9DDE90C23FEF788FD002840F079
:40344000D180069BE31AB3426ADADDE90C0100222F4BFEF709FB0022CDE90C01DDE902012B4BFEF701FBCDE90201C4E703EBC1012246D1E900012B46FEF7F6FA069BCDE9C3
:403480000C011D469C19DDE90201FEF787FD0646FEF784FA02460B46DDE90201FEF730F9303605F8016BAC42CDE902014FF0000222D11A4BDDE90C01FEF724F902460B46D9
:4034C000DDE90201FEF760FD002840F08B80DDE90C2300201149FEF713F902460B46DDE90201FEF733FDD8B114F8013C621E302B40F0B7821446F7E7054BFEF7B5FACDE95F
:403500000201C0E738460000104700000000F03F0000244000001C40000014400000E03FDDE90E34CDE90234139B002B7CDBBBF10E0F79DCAB4B03EBCB03D3E900671F9BD9
:40354000002B14DA059B002B11DC40F06C810022A54B30463946FEF787FADDE90223FEF709FD059D2E46002840F05F8165E1069CDDE9028932463B4640464946FEF79EFBD7
:40358000FEF70CFD0546FEF709FA32463B46FEF76BFA0B46024649464046FEF7B1F805F1300E069B04F801EBC3EB040E059B73452DD102460B46FEF7A5F880468946024650
:4035C0000B4630463946FEF7C1FC78B942464B4630463946FEF7B0FC002800F04482EB0704D440E2DDF820B000E01C4614F8012C631E392A07D1069A9A42F6D10699302219
:403600000BF1010B0A701A7801321A702BE20022764BFEF729FA0022002380468946FEF78BFC0028A6D01EE20A9A002A2BD01E9A012A0ADC119A12B103F2334302E0129BC3
:40364000C3F136033D46444613E0059B5D1EAF42BFBF0B9BEA1B9B180B93059BB6BF2F467D1B0025002BA7BF4446059BC3EB08040023079A01211A4450469844079200F0DC
:4036800001FB064602E03D4644460A9E5CB1079B002B08DDA342A8BF2346079AC3EB0808E41AD31A0793002F1DDD0A9BABB18DB131462A46504600F07FFB049A0146064653
:4036C000504600F0E8FA04990890504600F03BFA089B04937A1B06D000E03A460499504600F06AFB04900121504600F0CBFA0B9B05465BB31A460146504600F05DFB1E9BA7
:403700000546012B18DC029B83B9039BC3F3130373B9039B23F000473F0D3F054FB1079B08F1010801330793012702E0002700E0029F0B9B73B100E000272B6905EB830328
:40374000186900F052FAC0F1200004E01E9B012BD9DD0B9F0120079B184410F01F0008D0C0F12003042B02DDC0F11C0002E006D018461C30079B8044034404440793B8F133
:40378000000F05DD42460499504600F063FB0490079B002B05DD29461A46504600F05AFB0546109B23B32946049800F0A4FB00281EDA00230A220499504600F0DBF90A9BB1
:4037C0000BF1FF3B0490002B00F05F81314600230A22504600F0CEF9B9F1000F06463FDC3BE000BF384600000000144000002440059B002B2BDC1E9B022B28DDDDF814908B
:40380000B9F1000F11D129464B460522504600F0B1F901460546049800F06DFB00280CDC03E0354600E000252E461F9B069C6FEA030B09E03546DDF820B0069B069A5C1CA4
:40384000312313700BF1010B05960026F7E00A9BDDF8149023B9069CB2E01E9B022BCFDC002C05DD31462246504600F0F3FA06469FB17168504600F031F90446326906F1B1
:403880000C01023292000C30FEF73AFE01222146504600F0DFFA059000E00596029B069F03F00103079329460498FFF7D9FA3146044600F13008049800F01DFB059A02906D
:4038C0002946504600F033FBC36802463BB901460A90049800F00FFB0A9A034600E00123114650460A9300F02EF90A9B53B91E9A42B9079A32B9B8F1390F2AD0029B002B92
:403900001CDC1DE0029A002A04DB1BD11E9ACAB9079ABAB9002B13DD01220499504600F099FA2946049000F0E6FA002803DC07D118F0010F04D0B8F1390F0AD004F1310827
:403940007C1C0CE0002B07F101040BDDB8F1390F03D139233B70013756E008F1010887F800806CE0069B2746E31A4B4504F8018C3BD000230A220499504600F0FBF8059BF8
:4039800004909E424FF00A024FF000033146504604D100F0EFF80646059084E700F0EAF8002306460A220599504600F0E3F8059079E700230A220499504600F0DBF80490C7
:4039C00029460498FFF74CFA069B00F1300804F8018BE31A4B45ECDB069B0596B9F1010FACBF4B4401331F46002601220499504600F030FA2946049000F07DFA002803DC4A
:403A000015D118F0010F12D03C4614F8013C621E392B09D1069B934204D10BF1010B3123069A02E01446F0E70133137007E03C4614F8013C621E302B01D11446F8E7294605
:403A4000504600F080F8059B6BB12EB19E4203D03146504600F077F80599504600F073F801E0DDF820B00499504600F06CF80023209A23700BF101031360229B1BB11C600A
:403A800001E008480AE0069808E0B9F1000F3FF7E2AE1E9B022B7FF7DEAEB1E615B0BDE8F08F00BFF8450000004870474C81FF1F024B0146186800F041BB00BF4881FF1FF2
:403AC00010B5C9B202449042034605D01C7801308C42F8D1184610BD002010BD70B5456A04460E463DB91020FFF7E2FF6062456085600560C560656AEB6843B1636ADB6871
:403B000053F8260078B1026843F8262017E021220421204600F0B8FA636AE860DB68002BECD1002070BD012101FA06F56A1D9200204600F0A9FA0028F3D046608560002349
:403B40000361C36070BD70B5446A06460D463CB91020FFF7ADFF7062446084600460C4603DB1736A6A68DB6853F82210296043F8225070BD2DE9F04106460C460D691F46F6
:403B800001F1140E0023DEF80000013381B202FB0171000C0F0C02FB007089B201EB00419D424FEA10474EF8041BECDCD7B1A3689D4212DB616830460131FFF78FFF804670
:403BC000226904F10C01023292000C30FEF798FC21463046FFF7B7FF444604EB850301355F6125612046BDE8F081030C1B0413B90004102300E0002310F07F4F04BF000264
:403C0000083310F0704F04BF0001043310F0404F04BF80000233002803DB420003D5581C70471846704720207047036813F007020BD0D90722D49A074BBF5B089B080360F5
:403C400003604CBF01200220704799B209B91B0C102213F0FF0F04BF1B0A0832190704BF1B090432990704BF9B080232D90702D45B0805D001320360104670470020704764
:403C80002020704710B50C460121FFF727FF01224461026110BD2DE9F74F14460A69236988469A42BEBF0B46A0461C46D8F81070D4F81090D8F80830D8F8041007EB0906A2
:403CC0009E42C8BF0131FFF709FF00F114052B4605EB860C0022634502D243F8042BFAE704F1140208F1140102EB890301EB87070093009B0192934257D9B2F800B0BBF16F
:403D0000000F23D08946AE464FF0000859F8044BBEF800A0A3B20BFB03A34FEA144ADEF8004043444FEA14480BFB0A84F24604EB13449BB243EA04434F454FEA14484AF879
:403D4000043B01D9D646E1E7CEF80480019B0432B3F802A0BAF1000F21D02C4689462B684FF00008B9F800E0B4F802B09BB20AFB0EBEA346F04443EA08434BF8043B59F8A2
:403D8000043BB4F804E01B0C0AFB03E34F4503EB18434FEA134801D95C46E3E763600435A7E75CF8043D13B9013E002EF9DC066103B0BDE8F08F00002DE9F843154612F052
:403DC000030206460F4607D0214C013A002354F82220FFF7CFFE0746AD1036D0746A3CB91020FFF765FE7062446084600460C460D6F82480D8F808404CB940F27121304613
:403E0000FFF740FF04460023C8F8080003604FF00008EB070AD5394622463046FFF73BFF814639463046FFF78EFE4F466D100CD0206808B10446ECE7224621463046FFF74B
:403E40002AFF2060C0F80080F4E73846BDE8F883004700002DE9F0470C460746914626694FEA621A56444968A368751CAB4202DA01315B00FAE73846FFF730FE00238046F1
:403E80001A4600F11401534503DA41F823200133F9E72AEAEA73206901EB830319F01F0904F1140101EB800E14D0C9F1200C002208689A4600FA09F0024343F8042B51F84F
:403EC000042B8E4522FA0CF2F2D8CAF8042042B1B51C06E0043B51F8042B8E4543F8042FF9D8013D3846C8F810502146FFF72BFE4046BDE8F08703690A6910B59B1A11D144
:403F000092001430143183180A4453F8044D52F8041D8C4202D007D3012010BD9842F4D3002010BD184610BD4FF0FF3010BD2DE9F8430C460746114620461546FFF7DBFF42
:403F4000061E08D131463846FFF7C8FD012303614661BDE8F883BCBF23462C4638466168BABF1D4601260026FFF7B8FD2B69C660266905F1140904F1140101EB860709EB01
:403F8000830800F114054FF0000C51F8042B59F8044B93B29C44A3B2240CC3EB0C03C4EB124202EB23429BB24FEA224CC84543EA02428E4645F8042BE7D8BE450ED25EF8A3
:403FC000041B8AB26244131403EB114392B242EA03424FEA234C45F8042BEEE755F8043D0BB9013EFAE70661BDE8F8832DE9F3411C4601219046089E099DFFF76FFDC4F3B7
:404000001302C4F30A5407460CB142F480120192B8F1000F19D002A840F8088DFFF705FE009B48B1019AC0F1200102FA01F10B43C2407B61019200E07B61019B002B14BFDC
:4040400002210121BB61396107E001A8FFF7EDFD019B01217B613961203034B1A4F2334404443460C0F1350009E0A0F2324007EB810330601869FFF7B8FDC0EB41102860FA
:40408000384602B0BDE8F08138B502FB01F4214600F054F8054618B122460021FEF73BFA284638BD38B50546002944D051F8043C0C1F002BB8BFE41800F017FA1E4A136863
:4040C000114613B96360146030E0A3420DD92268A018834201BF18685B681218226063600C6023E0A24203D813465A68002AF9D118681918A1420BD1216801445818824263
:40410000196013D110685268014419605A600DE002D90C232B6009E021686018824201BF106852680918216062605C602846BDE8384000F0DBB938BDBC81FF1F70B5CD1CC9
:4041400025F0030508350C2D38BF0C25002D064601DBA94202D90C23336046E000F0C5F9234B1C681A462146A1B10B685B1B0ED40B2B03D90B60CC18CD501EE08C420BBFE9
:4041800063684B681360636018BF0C4615E00C464968E9E7174C23681BB9304600F07AF920602946304600F075F9431C18D0C41C24F00304A0420DD12560304600F096F980
:4041C00004F10B00231D20F00700C31A0ED05A42E25070BD211A304600F05CF90130EBD10C233360304600F081F9002070BD00BFBC81FF1FB881FF1F2DE9F0478E68824664
:404200009E420C46914698463ED88A8912F4906F3AD02568096902236F1A656905EB450595FBF3F57B1C43449D4238BF1D4653050FD52946FFF782FF064698B13A4621691A
:40424000FEF75EF9A38923F4906343F08003A38113E02A4600F04BF9064670B921695046FFF720FF0C23CAF80030A3894FF0FF3043F04003A381BDE8F08726613E442660A1
:4042800046466561ED1BA560464528BF464649463246206800F00EF9A36800209B1BA36023681E442660BDE8F08700002DE9F04F9DB003938B8980461C060D4616460DD5E3
:4042C0000B695BB94021FFF739FF2860286118B90C23C8F80030CDE040236B610023099320238DF82930DFF89CB130238DF82A3037463C4614F8013B1BB9B7EB060910D0E8
:4043000003E0252BF9D02746F3E74B46324629464046FFF771FF013000F0A780099B4B4409933B78002B00F0A08000234FF0FF3204930793059206938DF853301A93012601
:40434000052221784E48FFF7BBFB671C049B38B14B4A3C46801A06FA00F018430490EFE7D90644BF20228DF853201A0744BF2B228DF8532022782A2A03D0079A00210A2098
:404380000BE0039A111D12680391002A10DA524243F00200079204900BE027463B780134303B092B03D800FB02320121F5E701B107923B782E2B1ED17B782A2B0AD1039B41
:4043C00002371A1D1B680392002BB8BF4FF0FF33059310E0002319460593781C0A2407463A780130303A092A03D804FB01210123F5E703B10591032239782248FFF760FB1A
:4044000040B14023CBEB000003FA00F0049B013718430490397806221B487E1C8DF82810FFF74EFB88B1194B33B9039B073323F007030833039314E003AB00932A46144B9A
:4044400004A94046FEF700F907E003AB00932A460F4B04A94046FEF7B1FBB0F1FF3F824603D0099B5344099342E7AB895B0601D4099801E04FF0FF301DB0BDE8F08F00BFD1
:40448000384700003E4700004247000049260000F941000038B5064C0023054608462360FCF7A8F9431C02D1236803B12B6038BD2483FF1F884210B501EB020301D8421E45
:4044C0000BE09842FBD28118D21AD34204D013F8014D01F8014DF8E710BD994204D011F8014B02F8014FF8E710BD70477047F8B5074615460E4621B91146BDE8F840FFF75B
:404500001DBE1AB9FFF7CEFD2846F8BD00F015F885420ED929463846FFF710FE044650B131462A46FDF7ECFF31463846FFF7BAFD01E03046F8BD2046F8BD51F8040C0028F2
:40454000BEBF091851F8043CC0180438704700004FEA410C7FEA6C5C02D150EA013C0AD14FEA430C7FEA6C5C02D152EA033C02D14FF0000070474FF00100704700000000A6
:40458000436F6F72642E583A20256600436F6F72642E593A20256600035B00402443004040000000004F00402400005100401000305100401000505100402000C05100403A
:4045C0001000F0510040100000000140001000140140000800400140000A004C014000020050014020004300494E4600696E66004E414E006E616E003000303132333435CB
:4046000036373839414243444546003031323334353637383961626364656600496E66696E697479004E614E00504F534958002E0000000000000000000000000000F03F6E
:40464000000000000000244000000000000059400000000000408F40000000000088C34000000000006AF8400000000080842E4100000000D01263410000000084D79741D5
:404680000000000065CDCD41000000205FA00242000000E876483742000000A2941A6D42000040E59C30A2420000901EC4BCD64200003426F56B0C430080E03779C34143BE
:4046C00000A0D8855734764300C84E676DC1AB43003D9160E458E143408CB5781DAF154450EFE2D6E41A4B4492D54D06CFF08044F64AE1C7022DB544B49DD9794378EA44D7
:4047000005000000190000007D000000000000000080E03779C34143176E05B5B5B89346F5F93FE9034F384D321D30F94877825A3CBF737FDD4F1575232D302B2000686CC0
:404740004C0065666745464700000000F8B500BFF8BC08BC9E4670474D00000071080000F8B500BFF8BC08BC9E4670472900000080470000C880FF1FC0000000A00100006E
:4047800000000000FF0000002883FF1F01FF00000000E02EC05D00001800000000366E01000000000000000000000000000000000000000000000000000000000000000049
:4047C000E64500000000000000000000000000000000000000000000000000000000000000000000000000000000000000000000000000000000000000000000000000008E
:40480000E880FF1F2F4600003D4700003D4700003D4700003D4700003D4700003D4700003D4700003D4700003D470000FFFFFFFFFFFFFFFFFFFFFFFFFFFF000000000000E7
:404840000000000000000000000000000000000000000000000000000000000000000000000000000000000000000000000000000000000000000000000000000000000038
:4048800000000000000000000000000000000000000000000000000000000000000000000000000000000000000000000000000000000000000000000000000000000000F8
:4048C00000000000000000000000000000000000000000000000000000000000000000000000000000000000000000000000000000000000000000000000000000000000B8
:404900000000000000000000000000000000000000000000000000000000000000000000000000000000000000000000000000000000000000000000000000000000000077
:020000040003F7
:0200000480007A
:40000000064F00400152004001050140040A0140030B014001150140011B014006400140054101400D4201400543014002440140014501400446014001470140024801402B
:4000400001490140014C0140024D01400151014001100A4B0D10164B1910224B2110E602B820BE10D804DF011C088404E402EC10EC10312059046010CC10D640D840840415
:40008000852094109D04A52010045B025F0260808480870294109C049D04C440D6C0D840E64018101D0494109D04C6307F08DE01A70845088708A708D001A5082510C820D6
:4000C000B510A508B508EC0800030000000B0B0000000000007F7F00000000000A00003F3F003000000000000A0018010000000000000000000000000000000000000000EB
:4001000000000000000000000000000000000000000000000000000000000000000000000000000000000000000000000000000000000000000000000000000000000000BF
:40014000000000000000000000000000000000000000000000000000000000000000000000000000000000000000000000000000000000000000000000000000000000007F
:40018000000000000000000000000000000000000000000000000000000000000000000000000000000000000000000000000000000000000000000000000000000000003F
:4001C00000000000000000000000000000000000000000000000000000000000000000000000000000000000000000000000000000000000000000000000000000000000FF
:0200000490006A
:0400000000004005B7
:0200000490105A
:04000000BC90ACAF55
:0200000490303A
:02000000F37299
:0200000490402A
:4000000000000000000000000000000000000000000000000000000000000000000000000000000000000000000000000000000000000000000000000000000000000000C0
:400040000000000000000000000000000000000000000000000000000000000000000000000000000000000000000000000000000000000000000000000000000000000080
:400080000000000000000000000000000000000000000000000000000000000000000000000000000000000000000000000000000000000000000000000000000000000040
:4000C0000000000000000000000000000000000000000000000000000000000000000000000000000000000000000000000000000000000000000000000000000000000000
:0200000490501A
:0C00000000012E12306900012E2E23DBBF
:00000001FF